:0400000023EF00F0FA
:100008005E8289C0CEFF8AC0CFFF9EA00EEF00F0AF
:1000180010EF00F021EF00F08DB015EF00F018EFB1
:1000280000F0010E19EF00F0000EFF0A016E8D506E
:100038000118FE0B01188D6E9E905E92110061EF03
:0200480017F0AF
:10100000000000004B312D3E205365742046726570
:101010007175656E63792020322D3E2053657420F2
:10102000446972656374696F6E3A200D0A00456EFB
:1010300074657220446972656374696F6E20312D26
:101040003E20416E7469636C6F636B2D77697365C5
:101050003A200D0A00456E7465722074686520465A
:1010600072657175656E63793A200D0A0043757279
:1010700072656E74204672657175656E63793A208B
:101080000D0A00496E2D636F727265637420667578
:101090006E6374696F6E0D0A00003450800B3D6EF4
:1010A000345034243F6E33AE58EF08F05AEF08F056
:1010B0005BEF08F03F803F50D8B461EF08F063EF7A
:1010C00008F078EF08F03F28D8A469EF08F06BEF3C
:1010D00008F073EF08F0000E316E000E326E000E55
:1010E000336E000E346E338E000E346E80EF08F0D7
:1010F000000E316E000E326E000E336E000E346E36
:101100003850800B3E6E3D503E18D8B48AEF08F040
:101110008CEF08F08DEF08F03D8C385038243E6E8F
:1011200037AE95EF08F097EF08F098EF08F03E80A3
:101130003E50D8B49EEF08F0A0EF08F0B5EF08F0ED
:101140003E28D8A4A6EF08F0A8EF08F0B0EF08F00A
:10115000000E356E000E366E000E376E000E386EC5
:10116000378E000E386EBDEF08F0000E356E000EA3
:10117000366E000E376E000E386E3F503E5CD8B0B3
:10118000C4EF08F0C6EF08F0EDEF08F03DACCBEF90
:1011900008F0CDEF08F0CFEF08F0800E3D1A3FC009
:1011A00040F03EC03FF040C03EF031C040F035C09E
:1011B00031F040C035F032C040F036C032F040C0AF
:1011C00036F033C040F037C033F040C037F034C0A1
:1011D00040F038C034F040C038F0000E406E3F5050
:1011E0003EC039F03A6A395E000E3A5A3ABE02EF12
:1011F00009F03A5009E11A0E395CD8A002EF09F063
:1012000004EF09F03BEF09F0315032103310341085
:10121000D8A40DEF09F010EF09F0010E11EF09F05D
:10122000000E406E000E316E000E326E000E336EF8
:10123000000E346E3EC03FF044EF09F040A023EFB3
:1012400009F025EF09F02BEF09F0D89040300109A3
:10125000406E2DEF09F0D890403231A032EF09F006
:1012600034EF09F035EF09F0408E34343432333244
:10127000323231323F2A3E503F5CD8A042EF09F073
:1012800044EF09F01EEF09F03DBC49EF09F04BEFC8
:1012900009F08BEF09F03F50D8A451EF09F053EF5C
:1012A00009F05DEF09F0000E316E000E326E000E97
:1012B000336E000E346EACEF0AF0355031263650E6
:1012C0003222375033223850342234A06AEF09F0EA
:1012D0006CEF09F018EF0AF040A071EF09F073EF1E
:1012E00009F079EF09F0D89040300109406E7BEFAA
:1012F00009F0D890403231A080EF09F082EF09F078
:1013000083EF09F0408E34343432333232323132AA
:101310003F2A18EF0AF03550315C365032583750BA
:1013200033583450800A396E3850800A3958D8B052
:101330009CEF09F09EEF09F0C9EF09F03150355CE0
:10134000396E325036583A6E335037583B6E3450FF
:1013500038583C6EFF0E3924316EFF0E3A20326E43
:10136000FF0E3B20336EFF0E3C20346E800E3D1A84
:10137000406C4050D8A4BFEF09F0C1EF09F0D1EFA5
:1013800009F0010E3126000E322233223422D1EF31
:1013900009F03550315E3650325A3750335A385092
:1013A000345A3150321033103410D8A4DAEF09F027
:1013B000DCEF09F011EF0AF04050D8A4E2EF09F099
:1013C000E4EF09F011EF0AF0000E316E000E326EFC
:1013D000000E336E000E346EACEF0AF0D89031364A
:1013E00032363336343640AEF8EF09F0FAEF09F012
:1013F000FBEF09F0318040A000EF0AF002EF0AF0A5
:1014000006EF0AF0D880403608EF0AF0D890403650
:101410003F50D8B40EEF0AF010EF0AF011EF0AF0C7
:101420003F0633AE16EF0AF018EF0AF0EEEF09F0C0
:10143000000E3E6E40AE1FEF0AF021EF0AF039EFCA
:101440000AF040C039F07F0E3916D8B42AEF0AF0FE
:101450002CEF0AF030EF0AF0010E3E6E39EF0AF081
:1014600031A035EF0AF037EF0AF039EF0AF02CEF30
:101470000AF03E50D8B43FEF0AF041EF0AF06CEFAB
:101480000AF0010E3126000E32223322342234A01B
:101490004CEF0AF04EEF0AF06CEF0AF031C039F071
:1014A00032C03AF033C03BF034C03CF03C343C3204
:1014B0003B323A32393239C031F03AC032F03BC0B7
:1014C00033F03CC034F03F28D8B469EF0AF06BEF3A
:1014D0000AF06CEF0AF03F2A3F28D8B472EF0AF006
:1014E00074EF0AF07CEF0AF03F50D8A47AEF0AF0CC
:1014F0007CEF0AF08EEF0AF0000E316E000E326EB5
:10150000000E336E000E346E3F50D8A48AEF0AF0FE
:101510008CEF0AF08EEF0AF0000E3D6E3FA093EFC5
:101520000AF095EF0AF098EF0AF0338E99EF0AF07F
:10153000339ED8903F30346E3DAEA1EF0AF0A3EF5A
:101540000AF0A4EF0AF0348E31C031F032C032F02C
:1015500033C033F034C034F012000550800B0E6EEF
:1015600005500524146E04AEB8EF0AF0BAEF0AF085
:10157000BBEF0AF014801450D8B4C1EF0AF0C3EFE7
:101580000AF0D6EF0AF01428D8A4C9EF0AF0CBEF7E
:101590000AF0D3EF0AF0000E026E000E036E000E8A
:1015A000046E000E056E048EDEEF0AF0000E026E71
:1015B000000E036E000E046E000E056E0950800BC7
:1015C0000E1A09500924136E08AEE9EF0AF0EBEF8A
:1015D0000AF0ECEF0AF013801350D8B4F2EF0AF0DF
:1015E000F4EF0AF007EF0BF01328D8A4FAEF0AF093
:1015F000FCEF0AF004EF0BF0000E066E000E076E13
:10160000000E086E000E096E088E0FEF0BF0000E34
:10161000066E000E076E000E086E000E096E135067
:10162000D8B415EF0BF017EF0BF01FEF0BF01450C1
:10163000D8A41DEF0BF01FEF0BF029EF0BF0000EFD
:10164000026E000E036E000E046E000E056EC1EFFA
:101650000CF008500202F3CF19F0F4CF1AF0195031
:101660000F6E106A116A126A1A50156E166A176A9E
:10167000186A07500302F3CF19F0F4CF1AF019508B
:101680000F26000E1022112212221A501526000ECB
:1016900016221722182206500402F3CF19F0F4CFB5
:1016A0001AF019500F26000E1022112212221A5081
:1016B0001526000E16221722182211C012F010C093
:1016C00011F00FC010F00F6A06500302F3CF19F0AB
:1016D000F4CF1AF019500F261A501022000E1122C2
:1016E000000E122207500202F3CF19F0F4CF1AF0C5
:1016F00019500F261A501022000E1122000E12222D
:1017000011C012F010C011F00FC010F00F6A065097
:101710000202F3CF19F0F4CF1AF019500F261A5025
:101720001022000E1122000E122208500302F3CFE5
:1017300019F0F4CF1AF0195015261A501622000E7F
:101740001722000E182207500402F3CF19F0F4CF2D
:101750001AF0195015261A501622000E1722000EE4
:10176000182208500402F3CF19F0F4CF1AF01950E0
:101770000A6E1A500B6E0C6A0D6A0CC00DF00BC08D
:101780000CF00AC00BF00A6A0A5015260B501622FC
:101790000C5017220D5018220FC00AF010C00BF089
:1017A00011C00CF012C00DF0190EDCEF0BF0D89048
:1017B0000D320C320B320A32E82ED7EF0BF00A5002
:1017C00015260B5016220C5017220D50182211C04E
:1017D00012F010C011F00FC010F00F6A135014C0B7
:1017E0000AF00B6A0A26000E0B22820E0A24196EDA
:1017F000FF0E0B201A6E12EF0CF0D890153616362D
:101800001736183612AE07EF0CF009EF0CF00AEF9E
:101810000CF01580D8900F36103611361236190696
:10182000D8A01A0617AE17EF0CF019EF0CF0FDEF69
:101830000BF0000E136E12AE20EF0CF022EF0CF046
:1018400046EF0CF0FF0E0F140A6EFF0E10140B6E15
:10185000FF0E11140C6E7F0E12140D6E0A500B1039
:101860000C100D10D8B437EF0CF039EF0CF03DEF41
:101870000CF0010E136E46EF0CF015A042EF0CF0C9
:1018800044EF0CF046EF0CF039EF0CF01350D8B4E5
:101890004CEF0CF04EEF0CF072EF0CF0010E152631
:1018A000000E16221722182218A059EF0CF05BEF39
:1018B0000CF072EF0CF015C00AF016C00BF017C058
:1018C0000CF018C00DF00D340D320C320B320A3210
:1018D0000AC015F00BC016F00CC017F00DC018F0C0
:1018E000194A1A2A1ABE7DEF0CF01A5008E119287D
:1018F000D8A07DEF0CF07FEF0CF089EF0CF0000E1C
:10190000156E000E166E800E176E7F0E186EB7EFF6
:101910000CF01ABE96EF0CF01A5006E11904D8B07C
:1019200094EF0CF096EF0CF0A2EF0CF0000E156E99
:10193000000E166E000E176E000E186E000E0E6E64
:10194000B7EF0CF019C014F0FF0E1516FF0E1616A7
:101950007F0E1716000E181614A0B1EF0CF0B3EF9F
:101960000CF0B4EF0CF0178ED8901430186E0E50A7
:10197000181215C002F016C003F017C004F018C00A
:1019800005F012007FC06AF080C06BF081C06CF07F
:1019900082C06DF049C06AF04AC06BF04BC06CF079
:1019A0004CC06DF06AC04DF06BC04EF06CC04FF093
:1019B0006DC050F0180EE2EF0CF0D89050324F325C
:1019C0004E324D32E82EDDEF0CF04D500001646FC9
:1019D000656B65BFF5EF0CF0655109E1960E645D2E
:1019E000D8A0F5EF0CF0F7EF0CF001EF0DF049C0C7
:1019F00049F04AC04AF04BC04BF04CC04CF09AEF53
:101A00000EF06AC04DF06BC04EF06CC04FF06DC070
:101A100050F0200E11EF0DF0D89050324F324E3270
:101A20004D32E82E0CEF0DF04D504E104F1050106F
:101A3000D8B41DEF0DF01FEF0DF031EF0DF049C0E0
:101A400002F04AC003F04BC004F04CC005F07EEC3D
:101A500017F002C049F003C04AF004C04BF005C0C3
:101A60004CF0000165BF40EF0DF0655107E17E0EBF
:101A7000645DD8B03EEF0DF040EF0DF05CEF0DF07F
:101A80006AC002F06BC003F06CC004F06DC005F0DA
:101A9000000E066E000E076E000E086E000E096E38
:101AA000ADEC0AF002C049F003C04AF004C04BF0AC
:101AB00005C04CF09AEF0EF0000E356E000E366E3B
:101AC000000E376E4B0E386E49C031F04AC032F00E
:101AD0004BC033F04CC034F04DEC08F031C066F030
:101AE00032C067F033C068F034C069F0000E356E64
:101AF000000E366E000E376ECB0E386E66C031F0BB
:101B000067C032F068C033F069C034F04DEC08F0C3
:101B100031C060F032C061F033C062F034C063F0B5
:101B200060C041F061C042F062C043F063C044F065
:101B300049C045F04AC046F04BC047F04CC048F0A1
:101B40003EEC17F041C06EF042C06FF043C070F041
:101B500044C071F0000E026E000E036E000E046EA3
:101B60003F0E056E6EC006F06FC007F070C008F043
:101B700071C009F0DBEC14F0D8B0C1EF0DF0C3EF89
:101B80000DF0F9EF0DF049C035F04AC036F04BC00A
:101B900037F04CC038F06EC031F06FC032F070C01A
:101BA00033F071C034F04DEC08F031C066F032C053
:101BB00067F033C068F034C069F066C031F067C0C8
:101BC00032F068C033F069C034F0000E356E000E9C
:101BD000366E800E376EBF0E386E4DEC08F031C099
:101BE0006EF032C06FF033C070F034C071F062EF4D
:101BF0000EF0000E026E000E036E000E046EBF0E9D
:101C0000056E6EC006F06FC007F070C008F071C0BE
:101C100009F0DBEC14F0D8A010EF0EF012EF0EF08C
:101C200048EF0EF049C035F04AC036F04BC037F0EF
:101C30004CC038F06EC031F06FC032F070C033F07D
:101C400071C034F04DEC08F031C066F032C067F07E
:101C500033C068F034C069F066C031F067C032F05C
:101C600068C033F069C034F0000E356E000E366E79
:101C7000800E376E3F0E386E4DEC08F031C06EF0BE
:101C800032C06FF033C070F034C071F062EF0EF00C
:101C90006EC031F06FC032F070C033F071C034F0FC
:101CA00049C035F04AC036F04BC037F04CC038F070
:101CB0004DEC08F031C06EF032C06FF033C070F000
:101CC00034C071F06AC04DF06BC04EF06CC04FF084
:101CD0006DC050F0200E72EF0EF0D89050324F329F
:101CE0004E324D32E82E6DEF0EF04D504E104F102B
:101CF0005010D8B47EEF0EF080EF0EF092EF0EF0A1
:101D00006EC002F06FC003F070C004F071C005F047
:101D10007EEC17F002C06EF003C06FF004C070F0EC
:101D200005C071F06EC049F06FC04AF070C04BF052
:101D300071C04CF012001B50800B286E1B501B24EE
:101D40002F6E1AAEA6EF0EF0A8EF0EF0A9EF0EF070
:101D50002F802F50D8B4AFEF0EF0B1EF0EF0C6EFDA
:101D60000EF02F28D8A4B7EF0EF0B9EF0EF0C1EFA8
:101D70000EF0000E186E000E196E000E1A6E000E98
:101D80001B6E1A8E000E1B6ECEEF0EF0000E186E3C
:101D9000000E196E000E1A6E000E1B6E1F50800B87
:101DA000281A1F501F24306E1EAED9EF0EF0DBEF45
:101DB0000EF0DCEF0EF030803050D8B4E2EF0EF0D1
:101DC000E4EF0EF0F9EF0EF03028D8A4EAEF0EF0B1
:101DD000ECEF0EF0F4EF0EF0000E1C6E000E1D6E18
:101DE000000E1E6E000E1F6E1E8E000E1F6E01EF87
:101DF0000FF0000E1C6E000E1D6E000E1E6E000E0B
:101E00001F6E1C501D101E101F10D8A40AEF0FF0DB
:101E10000CEF0FF024EF0FF0000E186E000E196E8D
:101E2000000E1A6E000E1B6E800E1A127F0E1B1211
:101E300028501B1218C018F019C019F01AC01AF057
:101E40001BC01BF067EF10F02F50D8A42AEF0FF043
:101E50002CEF0FF036EF0FF0000E186E000E196E1B
:101E6000000E1A6E000E1B6E67EF10F030502FC080
:101E700020F0216A205E000E215A7F0E2024296E58
:101E8000000E21202A6E18C024F019C025F01AC0B7
:101E900026F01BC027F0000E186E000E196E000E03
:101EA0001A6E000E1B6E000E2B6E000E2C6E000EB6
:101EB0002D6E000E2E6E000E306E97EF0FF030502C
:101EC000D8B465EF0FF067EF0FF07EEF0FF0D8900A
:101ED0002436253626362736D890183619361A363F
:101EE0001B362EAE76EF0FF078EF0FF079EF0FF094
:101EF0001880D8902B362C362D362E361C50245C6C
:101F00001D5025581E5026581F502758D8A08BEF1B
:101F10000FF08DEF0FF096EF0FF02E8C1C50245E1B
:101F20001D50255A1E50265A1F50275A302A190E66
:101F300030649DEF0FF09FEF0FF05FEF0FF0245034
:101F4000251026102710D8B4A8EF0FF0AAEF0FF035
:101F5000C2EF0FF02B80C2EF0FF0D8901836193671
:101F60001A361B362EAEB7EF0FF0B9EF0FF0BAEFFF
:101F70000FF01880D8902B362C362D362E362906A9
:101F8000D8A02A061AAEC7EF0FF0C9EF0FF0ADEFD9
:101F90000FF0000E306E2EAED0EF0FF0D2EF0FF03C
:101FA000F6EF0FF0FF0E2B14206EFF0E2C14216E97
:101FB000FF0E2D14226E7F0E2E14236E2050211042
:101FC00022102310D8B4E7EF0FF0E9EF0FF0EDEF98
:101FD0000FF0010E306EF6EF0FF018A0F2EF0FF0D9
:101FE000F4EF0FF0F6EF0FF0E9EF0FF03050D8B448
:101FF000FCEF0FF0FEEF0FF022EF10F0010E1826AD
:10200000000E19221A221B221BA009EF10F00BEF61
:1020100010F022EF10F018C020F019C021F01AC003
:1020200022F01BC023F0233423322232213220320B
:1020300020C018F021C019F022C01AF023C01BF0F4
:10204000294A2A2A2ABE2DEF10F02A5008E1292811
:10205000D8A02DEF10F02FEF10F03AEF10F0000E97
:102060002A6E2968000E186E000E196E000E1A6E88
:10207000000E1B6E2ABE47EF10F02A5006E129041D
:10208000D8B045EF10F047EF10F055EF10F0000E0C
:102090002A6E000E296E000E186E000E196E000ECC
:1020A0001A6E000E1B6E000E286E29C02FF02FA096
:1020B0005CEF10F05EEF10F061EF10F01A8E62EF3F
:1020C00010F01A9ED8902F301B6E18EF0FF01200F0
:1020D000910E086E000E096E54EC16F06D0E026E35
:1020E000100E036E0DEC16F01A0E5B6EF80EE82E55
:1020F000FED75B2EFCD700D0910E026E000E036E51
:102100000DEC16F0520E026E100E036E0DEC16F072
:10211000910E096E000E0A6E71EC12F009C087F084
:102120000AC088F087C08BF088C08CF000018B510A
:102130008F5D9051800A5B6E8C51800A5B58D8B0DD
:10214000A4EF10F0A6EF10F004EF11F0000E056EF2
:10215000320E046E8F518B5D026E90518C59036E5E
:102160005DEC15F002C00AF003C00BF0000E0BBED0
:10217000FF0E0C6E0D6E010E97EC11F00AC049F0C7
:102180000BC04AF00CC04BF00DC04CF0C2EC0CF090
:1021900049C051F04AC052F04BC053F04CC054F00B
:1021A00058EC14F051C072F052C073F0000E0001F0
:1021B000776F000E766F72518F27735190238FC007
:1021C00010F090C011F0C0EC16F010C089F011C0F2
:1021D0008AF0680E5B6EE40EE82EFED75B2EFCD70D
:1021E00000D00001764B772B77BF00EF11F07751CD
:1021F00009E1320E765DD8A000EF11F002EF11F088
:10220000DBEF10F07FEF11F08F518B5D8C51800A66
:102210005B6E9051800A5B58D8B011EF11F013EF4C
:1022200011F071EF11F0000E056E320E046E8B513D
:102230008F5D026E8C519059036E5DEC15F002C0FB
:102240000AF003C00BF0000E0BBEFF0E0C6E0D6EFD
:10225000010E97EC11F00AC049F00BC04AF00CC017
:102260004BF00DC04CF0C2EC0CF049C051F04AC02C
:1022700052F04BC053F04CC054F058EC14F051C025
:1022800074F052C075F0000E0001796F000E786F87
:1022900074518F5F7551905B8FC010F090C011F03A
:1022A000C0EC16F010C089F011C08AF0680E5B6EA9
:1022B000E40EE82EFED75B2EFCD700D00001784B51
:1022C000792B79BF6DEF11F0795109E1320E785D0C
:1022D000D8A06DEF11F06FEF11F048EF11F07FEF24
:1022E00011F087C010F088C011F0C0EC16F010C0DB
:1022F00089F011C08AF087C08FF088C090F0550E29
:102300001B6E000E1A6E8FC010F090C011F0C0EC62
:1023100016F010C01CF011C01DF08AEC16F0820EF1
:102320005B6EDE0EE82EFED75B2EFCD71200126E1F
:102330001250D8B49EEF11F0A0EF11F0C2EF11F0DF
:102340000DBEA7EF11F0A5EF11F0C2EF11F00AC01A
:102350000EF00BC00FF00CC010F00DC011F00E1EEF
:102360000F1E101E111E0E2A000E0F221022112207
:102370000EC014F00FC015F010C016F011C017F009
:10238000CAEF11F00AC014F00BC015F00CC016F023
:102390000DC017F00A500B100C100D10D8A4D3EF7D
:1023A00011F0D5EF11F0DFEF11F0000E0A6E000E04
:1023B0000B6E000E0C6E000E0D6E70EF12F0960E8E
:1023C000136EE9EF11F0132AD89017321632153236
:1023D0001432000E14140E6E000E15140F6E000E43
:1023E0001614106EFE0E1714116E0E500F101010F2
:1023F0001110D8A4FEEF11F000EF12F0E3EF11F08E
:102400000EEF12F0132A010E1426000E15221622CA
:102410001722D8901732163215321432000E1414C7
:102420000E6E000E15140F6E000E1614106EFF0EB9
:102430001714116E0E500F1010101110D8A423EFA6
:1024400012F025EF12F002EF12F02DEF12F013064A
:10245000D890143615361636173616BE32EF12F0EF
:1024600034EF12F03CEF12F0020E13603AEF12F06C
:102470003CEF12F027EF12F013B041EF12F043EFF0
:1024800012F044EF12F0169ED890133213C00EF0E3
:102490000F6A106A116A0EC011F0106A0F6A0E6A94
:1024A0000E5014120F501512105016121150171210
:1024B0001250D8B45EEF12F060EF12F068EF12F035
:1024C0000DBE67EF12F065EF12F068EF12F0178E95
:1024D00014C00AF015C00BF016C00CF017C00DF0B8
:1024E0001200000E176E000E166E000E106E000E1B
:1024F0000F6E7DEF12F0094A0A2A010E156E09C00F
:10250000D9FF0AC0DAFF200EDE18D8B48AEF12F025
:102510008CEF12F0A8EF12F0F70E0B6EFF0E0C6EA0
:1025200009C0D9FF0AC0DAFFDF500D6E0E6A0B50EA
:102530000D260C500E220E5009E1050E0D5CD8A0A0
:10254000A4EF12F0A6EF12F0A8EF12F0000E156E35
:1025500015C011F0126A11501210D8A4B2EF12F087
:10256000B4EF12F07BEF12F0BEEF12F0000E106E1F
:10257000010E0F6E094A0A2AF3EF12F009C0D9FFC3
:102580000AC0DAFFDF500B6E0C6A0C50000AD8B498
:10259000CCEF12F0F3EF12F00B502B0AD8B4BAEFD5
:1025A00012F0060AD8B4B6EF12F0F3EF12F016C02C
:1025B00002F017C003F0000E056E0A0E046EB6ECB2
:1025C00017F009C0D9FF0AC0DAFFDF500B6E0B50BD
:1025D000025E000E035A300E0224166E000E032017
:1025E000176EBAEF12F0D00E0B6EFF0E0C6E09C014
:1025F000D9FF0AC0DAFFDF500D6E0E6A0B500D26B0
:102600000C500E220E500AE10A0E0D5CD8A00BEF02
:1026100013F00EEF13F0010E0FEF13F0000E136E18
:10262000146A13501410D8A418EF13F01AEF13F013
:10263000D7EF12F00F501010D8A421EF13F023EFB2
:1026400013F031EF13F016C00BF017C00CF00B1E97
:102650000C1E0B4A0C2A0BC009F00CC00AF035EF17
:1026600013F016C009F017C00AF01200700ED31252
:10267000030ED312550E036E000E026E18EC17F007
:1026800002C07CF003C07DF000017C2908E17D29B7
:10269000D8B44DEF13F04FEF13F055EF13F07CC0AB
:1026A00089F07DC08AF05FEF13F0000E116EC80E46
:1026B000106EC0EC16F010C089F011C08AF0000E48
:1026C000966E000E996E000E8D6E000E906E800E4E
:1026D000CD6E89C0CEFF8AC0CFFF9D80D08E9E90E8
:1026E000F28ECD80800E0001726F250E736F000E8A
:1026F000746F000E756FBFEC15F0050E026E100EB4
:10270000036E0DEC16F0E6EC17F000017E6F310E53
:102710007E19D8A48EEF13F090EF13F094EF13F01E
:1027200068EC10F07DEF13F0320E7E19D8A49BEF09
:1027300013F09DEF13F0BFEF13F0060E00017A6F58
:10274000300EE82EFED77A2FFCD700F02E0E026E48
:10275000100E036E0DEC16F0E6EC17F000017B6F27
:10276000310E7B19D8A4B7EF13F0B9EF13F0BCEF1B
:1027700013F08D827DEF13F08D927DEF13F0830EB9
:10278000026E100E036E0DEC16F0060E00017A6F4D
:10279000300EE82EFED77A2FFCD700F07DEF13F035
:1027A00023EF00F0000E0B6E09BEDBEF13F0D9EF44
:1027B00013F0E5EF13F0091E081E071E066C000E4D
:1027C000072208220922010E0B6E05BEECEF13F062
:1027D000EAEF13F0F6EF13F0051E041E031E026C61
:1027E000000E032204220522010E0B1A000E0C6EAD
:1027F000000E0D6E000E0E6E000E0F6E06500710CE
:1028000008100910D8B407EF14F009EF14F03FEFE7
:1028100014F0010E0A6E13EF14F0D8900636073646
:10282000083609360A2A09AE18EF14F01AEF14F028
:102830000DEF14F0D8900C360D360E360F360650CC
:10284000025C075003580850045809500558D8A096
:102850002CEF14F02EEF14F037EF14F00650025E58
:102860000750035A0850045A0950055A0C80D89052
:1028700009320832073206320A2E1AEF14F00B50D2
:10288000D8B445EF14F047EF14F04FEF14F00F1EDB
:102890000E1E0D1E0C6C000E0D220E220F220CC0FF
:1028A00002F00DC003F00EC004F00FC005F01200DE
:1028B000533454345A6E5A50D8A461EF14F063EF75
:1028C00014F06DEF14F0000E516E000E526E000EFB
:1028D000536E000E546EDAEF14F051C055F052C032
:1028E00056F053C057F054C058F0200E7DEF14F04E
:1028F000D8905832573256325532E82E78EF14F0CD
:102900005550596E538EFF0E5116FF0E5216FF0E84
:102910005316000E5416960E5A5E5ABE94EF14F0DB
:1029200092EF14F0AAEF14F05A50800A970FD8B023
:102930009CEF14F09EEF14F0A0EF14F063EF14F08E
:10294000D89054325332523251325A3EA0EF14F0E2
:10295000C2EF14F01F0E5A64B0EF14F0B2EF14F08F
:10296000BAEF14F063EF14F0D89051365236533664
:1029700054365A065A50D8A4C0EF14F0C2EF14F0DF
:10298000B4EF14F05950D8B4C8EF14F0CAEF14F0F3
:10299000D2EF14F0541E531E521E516C000E5222E0
:1029A0005322542251C051F052C052F053C053F040
:1029B00054C054F01200000E02140A6E000E0314EC
:1029C0000B6E800E04140C6E7F0E05140D6E0A50F3
:1029D0000B100C100D10D8A4F0EF14F0F2EF14F05F
:1029E000FAEF14F0000E026E000E036E000E046E7D
:1029F000000E056E000E06140A6E000E07140B6E14
:102A0000800E08140C6E7F0E09140D6E0A500B1008
:102A10000C100D10D8A40FEF15F011EF15F019EFF1
:102A200015F0000E066E000E076E000E086E000E0A
:102A3000096E05AE1EEF15F020EF15F029EF15F029
:102A4000026C031ED8B0032A041ED8B0042A800EDC
:102A5000055609AE2EEF15F030EF15F039EF15F0F1
:102A6000066C071ED8B0072A081ED8B0082A800EA8
:102A70000956000E021A000E031A000E041A800EE8
:102A8000051A000E061A000E071A000E081A800E0C
:102A9000091A0650025C07500358085004580950A0
:102AA0000558D8B056EF15F058EF15F05BEF15F05C
:102AB000D8905CEF15F0D8801200000E076E05BEAE
:102AC00066EF15F064EF15F06CEF15F0046C051E61
:102AD000D8B0052A010E076E03BE73EF15F071EF33
:102AE00015F079EF15F0026C031ED8B0032A010E21
:102AF000071A000E096E000E086E04500510D8B4B7
:102B000084EF15F086EF15F0AEEF15F0010E066EAE
:102B10008EEF15F0D89004360536062A05AE93EFF1
:102B200015F095EF15F08AEF15F0D89008360936B4
:102B30000450025C05500358D8A0A1EF15F0A3EF94
:102B400015F0A8EF15F00450025E0550035A0880F6
:102B5000D89005320432062E95EF15F00750D8B400
:102B6000B4EF15F0B6EF15F0BAEF15F0086C091ECA
:102B7000D8B0092A08C002F009C003F01200949CE2
:102B8000948E72C00AF073C00BF074C00CF075C064
:102B90000DF0010E97EC11F00AC01CF00BC01DF0F7
:102BA0000CC01EF00DC01FF0000E186E240E196E22
:102BB000F40E1A6E470E1B6E9BEC0EF018C031F02F
:102BC00019C032F01AC033F01BC034F0000E356E5D
:102BD000000E366E800E376EBF0E386E4DEC08F06C
:102BE00031C076F032C077F033C078F034C079F07D
:102BF00076C051F077C052F078C053F079C054F0ED
:102C000058EC14F05150AF6EAC9EAC9CAC8AAC98B2
:102C1000AC947E96900EAB6E1200000E076E000E06
:102C2000066E34EF16F09EA818EF16F01AEF16F0A5
:102C300034EF16F006500224046E07500320056E90
:102C400004C0F6FF05C0F7FF000EF86E0F0EF76424
:102C500003D00800F55005D0F6CFE9FFF7CFEAFF23
:102C6000EF50AD6E064A072A06500224046E075044
:102C70000320056E04C0F6FF05C0F7FF000EF86ED6
:102C80000F0EF76403D00800F55005D0F6CFE9FF2A
:102C9000F7CFEAFFEF500009D8A451EF16F053EF39
:102CA00016F013EF16F01200550E026E100E036EA2
:102CB0000DEC16F0000E0B6E0B500824D96E000EB2
:102CC0000920DA6EE6EC17F0DF6E0B500824D96E9F
:102CD000000E0920DA6EDF500A6E0B2A0A0E0A185F
:102CE000D8B475EF16F077EF16F080EF16F00D0EF2
:102CF0000A18D8A47EEF16F080EF16F05CEF16F0FD
:102D00000B2A0B500824D96E000E0920DA6E000E33
:102D1000DF6E1200000E206E000E1F6E1AC021F032
:102D20001BC022F021C0F6FF22C0F7FFF86A08009E
:102D3000F5CF1FF0214A222A0800F5CF20F0214AC2
:102D4000222A1AC002F01BC003F0C9EC17F01AC007
:102D500021F01BC022F021C0F6FF22C0F7FFF86A65
:102D60001CC0F5FF0C00214A222A21C0F6FF22C018
:102D7000F7FFF86A1D50F56E0C00DAEC17F0120040
:102D8000D8901034146E1134156E000E026E120EAF
:102D9000036E7A0E046E000E056E14C012F015C09C
:102DA00013F0D89012361336D8901236133612C05C
:102DB00006F013C007F0000E07BEFF0E086E096E86
:102DC000D2EC13F002C016F003C017F0161C186EF8
:102DD000171C196E18C010F019C011F01200010E66
:102DE000086E200E02180310D8B4F9EF16F0FBEFAE
:102DF00016F014EF17F0F70E046EFF0E056E02C00A
:102E000006F003C007F004500626055007220750BD
:102E100009E1050E065CD8A010EF17F012EF17F0CD
:102E200014EF17F0000E086E08C002F0036A1200DB
:102E3000000E096E000E086E010E0224046E000ED4
:102E40000320056E04C0F6FF05C0F7FFF86A08000E
:102E5000F5CF06F0076A02C0F6FF03C0F7FFF86A75
:102E60000800F5CF08F0096A0650056E046A08509C
:102E70000410026E09500510036E1200000E451A70
:102E8000000E461A000E471A800E481A41C031F053
:102E900042C032F043C033F044C034F045C035F096
:102EA00046C036F047C037F048C038F04DEC08F067
:102EB00031C041F032C042F033C043F034C044F07E
:102EC0001200E00EF66E2F0EF76E000EF86E00EE9A
:102ED00095F010EE04F00900F5CFEEFFE550E1505B
:102EE000FAE100EE7FF0160EEE6AE806FDE15D6A9B
:102EF0005C6A5E905E92000136EF13F002500310A0
:102F000004100510D8B487EF17F089EF17F091EF90
:102F100017F0000E021A000E031A000E041A800E9B
:102F2000051A02C002F003C003F004C004F005C09B
:102F300005F01200D00E046EFF0E056E02C006F002
:102F400003C007F0045006260550072207500AE187
:102F50000A0E065CD8A0AFEF17F0B2EF17F0010E23
:102F6000B3EF17F0000E026E036A12000250040263
:102F7000F3CF06F0F4CF07F002500502F350072616
:102F800003500402F350072606C002F007C003F006
:102F9000120002C0F6FF03C0F7FFF86AA68AA684F3
:102FA000A688F29E550EA76EAA0EA76EA682A694BC
:102FB000F28E1200A684A698A68AF29E550EA76EDF
:102FC000AA0EA76EA682A694F28E12009EAAEBEF1E
:102FD00017F0EDEF17F0E6EF17F09E9AAE501200E3
:042FE0000055010097
:020000040001F9
:06FFF80080F498FFF2F115
:00000001FF
