:040000002AEF00F0F3
:1000080003829EA00AEF00F00CEF00F028EF00F04A
:10001800010E0124016E000E0220026EE80E011886
:1000280007E1030E0218D8A41CEF00F01EEF00F041
:1000380023EF00F08D1E000E026E000E016EF80E0A
:10004800CF6E300ECE6E9E900392110044EF00F0FA
:10005800700ED312030ED312000E966E000E8D6E24
:10006800800ECD6EF80ECF6E300ECE6E9D80D08E87
:100078009F80F28E9E90CD8040EF00F02AEF00F036
:0E008800026A016A0390039200012CEF00F05F
:020000040001F9
:06FFF80080F418FFF2F195
:00000001FF
