:0400000023EF00F0FA
:100008005D82E5C0CEFFE6C0CFFF9EA00EEF00F0F8
:1000180010EF00F021EF00F08DB015EF00F018EFB1
:1000280000F0010E19EF00F0000EFF0A016E8D506E
:100038000118FE0B01188D6E9E905D921100B8EFAD
:0200480014F0B2
:0910000000307825303258000060
:10100A002C50800B356E2C502C24376E2BAE10EFE3
:10101A0008F012EF08F013EF08F037803750D8B411
:10102A0019EF08F01BEF08F030EF08F03728D8A4C2
:10103A0021EF08F023EF08F02BEF08F0000E296EDD
:10104A00000E2A6E000E2B6E000E2C6E2B8E000EDA
:10105A002C6E38EF08F0000E296E000E2A6E000E74
:10106A002B6E000E2C6E3050800B366E35503618B3
:10107A00D8B442EF08F044EF08F045EF08F0358C99
:10108A0030503024366E2FAE4DEF08F04FEF08F097
:10109A0050EF08F036803650D8B456EF08F058EFC3
:1010AA0008F06DEF08F03628D8A45EEF08F060EF7C
:1010BA0008F068EF08F0000E2D6E000E2E6E000E7E
:1010CA002F6E000E306E2F8E000E306E75EF08F008
:1010DA00000E2D6E000E2E6E000E2F6E000E306E5C
:1010EA003750365CD8B07CEF08F07EEF08F0A5EFF9
:1010FA0008F035AC83EF08F085EF08F087EF08F0C9
:10110A00800E351A37C038F036C037F038C036F09E
:10111A0029C038F02DC029F038C02DF02AC038F087
:10112A002EC02AF038C02EF02BC038F02FC02BF07A
:10113A0038C02FF02CC038F030C02CF038C030F056
:10114A00000E386E375036C031F0326A315E000E0A
:10115A00325A32BEBAEF08F0325009E11A0E315C47
:10116A00D8A0BAEF08F0BCEF08F0F3EF08F0295066
:10117A002A102B102C10D8A4C5EF08F0C8EF08F0DD
:10118A00010EC9EF08F0000E386E000E296E000E2F
:10119A002A6E000E2B6E000E2C6E36C037F0FCEF56
:1011AA0008F038A0DBEF08F0DDEF08F0E3EF08F015
:1011BA00D89038300109386EE5EF08F0D890383207
:1011CA0029A0EAEF08F0ECEF08F0EDEF08F0388E0E
:1011DA002C342C322B322A322932372A3650375CB9
:1011EA00D8A0FAEF08F0FCEF08F0D6EF08F035BC0B
:1011FA0001EF09F003EF09F043EF09F03750D8A4E3
:10120A0009EF09F00BEF09F015EF09F0000E296E4E
:10121A00000E2A6E000E2B6E000E2C6E64EF0AF082
:10122A002D5029262E502A222F502B2230502C2284
:10123A002CA022EF09F024EF09F0D0EF09F038A032
:10124A0029EF09F02BEF09F031EF09F0D890383087
:10125A000109386E33EF09F0D890383229A038EFF7
:10126A0009F03AEF09F03BEF09F0388E2C342C32B2
:10127A002B322A322932372AD0EF09F02D50295C35
:10128A002E502A582F502B582C50800A316E30502D
:10129A00800A3158D8B054EF09F056EF09F081EFBF
:1012AA0009F029502D5C316E2A502E58326E2B507F
:1012BA002F58336E2C503058346EFF0E3124296E5D
:1012CA00FF0E32202A6EFF0E33202B6EFF0E3420C3
:1012DA002C6E800E351A386C3850D8A477EF09F086
:1012EA0079EF09F089EF09F0010E2926000E2A226A
:1012FA002B222C2289EF09F02D50295E2E502A5AD2
:10130A002F502B5A30502C5A29502A102B102C109F
:10131A00D8A492EF09F094EF09F0C9EF09F0385018
:10132A00D8A49AEF09F09CEF09F0C9EF09F0000E72
:10133A00296E000E2A6E000E2B6E000E2C6E64EFC4
:10134A000AF0D89029362A362B362C3638AEB0EF2A
:10135A0009F0B2EF09F0B3EF09F0298038A0B8EF2D
:10136A0009F0BAEF09F0BEEF09F0D8803836C0EFBD
:10137A0009F0D89038363750D8B4C6EF09F0C8EF1C
:10138A0009F0C9EF09F037062BAECEEF09F0D0EF1E
:10139A0009F0A6EF09F0000E366E38AED7EF09F065
:1013AA00D9EF09F0F1EF09F038C031F07F0E3116AC
:1013BA00D8B4E2EF09F0E4EF09F0E8EF09F0010E22
:1013CA00366EF1EF09F029A0EDEF09F0EFEF09F021
:1013DA00F1EF09F0E4EF09F03650D8B4F7EF09F06D
:1013EA00F9EF09F024EF0AF0010E2926000E2A224D
:1013FA002B222C222CA004EF0AF006EF0AF024EF8D
:10140A000AF029C031F02AC032F02BC033F02CC0C8
:10141A0034F03434343233323232313231C029F09A
:10142A0032C02AF033C02BF034C02CF03728D8B49D
:10143A0021EF0AF023EF0AF024EF0AF0372A3728BF
:10144A00D8B42AEF0AF02CEF0AF034EF0AF037503A
:10145A00D8A432EF0AF034EF0AF046EF0AF0000E91
:10146A00296E000E2A6E000E2B6E000E2C6E37505F
:10147A00D8A442EF0AF044EF0AF046EF0AF0000E51
:10148A00356E37A04BEF0AF04DEF0AF050EF0AF035
:10149A002B8E51EF0AF02B9ED89037302C6E35AE3A
:1014AA0059EF0AF05BEF0AF05CEF0AF02C8E29C0C4
:1014BA0029F02AC02AF02BC02BF02CC02CF01200E5
:1014CA0046C0D9FF47C0DAFFDECFF6FFDDCFF7FF10
:1014DA00000EF86E0800F550250AD8A477EF0AF036
:1014EA0079EF0AF01DEF0CF046C0D9FF47C0DAFFCA
:1014FA00DE2A000EDD22000E0001A36F000EA26F8D
:10150A00A2C05BF0A3C05CF0A469A569000E586E86
:10151A00000E576ED9EF0AF05B8046C0D9FF47C06C
:10152A00DAFFDE2A000EDD22D9EF0AF05B8292EFA3
:10153A000AF05B8492EF0AF05B8692EF0AF05B880E
:10154A0092EF0AF0000E586E010E576ED9EF0AF0AC
:10155A0046C0D9FF47C0DAFFDECFF6FFDDCFF7FF7F
:10156A00000EF86E0800F5504A6E4B6A4B50000A9E
:10157A00D8B4C2EF0AF0A7EF0AF04A50200AD8B44A
:10158A00A1EF0AF0030AD8B4A4EF0AF0080AD8B403
:10159A009EEF0AF0060AD8B491EF0AF01D0AD8B4F1
:1015AA009BEF0AF0A7EF0AF057505810D8B4E0EFB3
:1015BA000AF0E2EF0AF0ADEF0AF05BA0E7EF0AF0FB
:1015CA00E9EF0AF0EAEF0AF05B9246C0D9FF47C09A
:1015DA00DAFFDECFF6FFDDCFF7FF000EF86E080068
:1015EA00F5502A0AD8A4FCEF0AF0FEEF0AF028EF19
:1015FA000BF046C0D9FF47C0DAFFDE2A000EDD2213
:10160A0048C0D9FF49C0DAFFDFCF4AF0020EDE2612
:10161A00DFCF4BF0000EDD224AC0D9FF4BC0DAFF04
:10162A00DECFA2F0DDCFA3F00001A3BF21EF0BF0C4
:10163A001FEF0BF06DEF0BF05B80A26DA31FD8B00C
:10164A00A32B6DEF0BF046C0D9FF47C0DAFFDECF00
:10165A0009F0DDCF0AF04CEC10F009C0A2F00AC084
:10166A00A3F03FEF0BF046C0D9FF47C0DAFFDE2AEE
:10167A00000EDD22D00E4A6EFF0E4B6E46C0D9FF19
:10168A0047C0DAFFDECFF6FFDDCFF7FF000EF86EB8
:10169A000800F5504C6E4D6A4A504C264B504D226C
:1016AA004D500AE10A0E4C5CD8A05EEF0BF061EFD8
:1016BA000BF0010E62EF0BF0000E596E5A6A595088
:1016CA005A10D8A46BEF0BF06DEF0BF038EF0BF05C
:1016DA0046C0D9FF47C0DAFFDECFF6FFDDCFF7FFFE
:1016EA00000EF86E0800F550780AD8B47FEF0BF0B8
:1016FA0081EF0BF095EF0BF046C0D9FF47C0DAFF38
:10170A00DECFF6FFDDCFF7FF000EF86E0800F550CA
:10171A00580AD8A493EF0BF095EF0BF0E5EF0BF016
:10172A0046C0D9FF47C0DAFFDECFF6FFDDCFF7FFAD
:10173A00000EF86E0800F5CF56F046C0D9FF47C034
:10174A00DAFFDE2A000EDD2248C0D9FF49C0DAFFDF
:10175A00DFCF4AF0020EDE26DFCF4BF0000EDD228D
:10176A004AC0D9FF4BC0DAFFDECF4CF0DDCF4DF0D7
:10177A004CC04EF04DC04FF0506A516A526A536ADB
:10178A00546A556A44C01DF045C01EF04EC01FF091
:10179A004FC020F050C021F051C022F052C023F0B7
:1017AA0053C024F054C025F055C026F056C027F087
:1017BA0008EC0EF01DC044F01EC045F03AEF0CF0E4
:1017CA0046C0D9FF47C0DAFFDECFF6FFDDCFF7FF0D
:1017DA00000EF86E0800F550250AD8A4F7EF0BF0B2
:1017EA00F9EF0BF010EF0CF046C0D9FF47C0DAFF53
:1017FA00DE2A000EDD22000E036E250E026E44C0A4
:10180A0004F045C005F027EC12F0000E456E010EFB
:10181A00446E3AEF0CF046C0D9FF47C0DAFFDE2A21
:10182A00000EDD22000E456E000E446E3AEF0CF0FB
:10183A0046C0D9FF47C0DAFFDECFF6FFDDCFF7FF9C
:10184A00000EF86E0800F550026E036A44C004F0F8
:10185A0045C005F027EC12F046C0D9FF47C0DAFFB1
:10186A00DE2A000EDD220AEF0CF012001350800B64
:10187A00206E13501324276E12AE46EF0CF048EF79
:10188A000CF049EF0CF027802750D8B44FEF0CF03A
:10189A0051EF0CF066EF0CF02728D8A457EF0CF0A4
:1018AA0059EF0CF061EF0CF0000E106E000E116E85
:1018BA00000E126E000E136E128E000E136E6EEF75
:1018CA000CF0000E106E000E116E000E126E000E5D
:1018DA00136E1750800B201A17501724286E16AE55
:1018EA0079EF0CF07BEF0CF07CEF0CF0288028509D
:1018FA00D8B482EF0CF084EF0CF099EF0CF02828A2
:10190A00D8A48AEF0CF08CEF0CF094EF0CF0000ED8
:10191A00146E000E156E000E166E000E176E168EE1
:10192A00000E176EA1EF0CF0000E146E000E156E6D
:10193A00000E166E000E176E1450151016101710A2
:10194A00D8A4AAEF0CF0ACEF0CF0C4EF0CF0000E28
:10195A00106E000E116E000E126E000E136E800EC7
:10196A0012127F0E13122050131210C010F011C061
:10197A0011F012C012F013C013F007EF0EF0275047
:10198A00D8A4CAEF0CF0CCEF0CF0D6EF0CF0000E96
:10199A00106E000E116E000E126E000E136E07EF1F
:1019AA000EF0285027C018F0196A185E000E195A4E
:1019BA007F0E1824216E000E1920226E10C01CF012
:1019CA0011C01DF012C01EF013C01FF0000E106EE1
:1019DA00000E116E000E126E000E136E000E236EB4
:1019EA00000E246E000E256E000E266E000E286E66
:1019FA0037EF0DF02850D8B405EF0DF007EF0DF0D2
:101A0A001EEF0DF0D8901C361D361E361F36D890A4
:101A1A00103611361236133626AE16EF0DF018EFC1
:101A2A000DF019EF0DF01080D890233624362536A4
:101A3A00263614501C5C15501D5816501E58175047
:101A4A001F58D8A02BEF0DF02DEF0DF036EF0DF04B
:101A5A00268C14501C5E15501D5A16501E5A1750CB
:101A6A001F5A282A190E28643DEF0DF03FEF0DF09A
:101A7A00FFEF0CF01C501D101E101F10D8B448EFB9
:101A8A000DF04AEF0DF062EF0DF0238062EF0DF0DA
:101A9A00D890103611361236133626AE57EF0DF09F
:101AAA0059EF0DF05AEF0DF01080D89023362436F6
:101ABA00253626362106D8A0220612AE67EF0DF08B
:101ACA0069EF0DF04DEF0DF0000E286E26AE70EFA7
:101ADA000DF072EF0DF096EF0DF0FF0E2314186E55
:101AEA00FF0E2414196EFF0E25141A6E7F0E26148B
:101AFA001B6E185019101A101B10D8B487EF0DF06E
:101B0A0089EF0DF08DEF0DF0010E286E96EF0DF0B6
:101B1A0010A092EF0DF094EF0DF096EF0DF089EF13
:101B2A000DF02850D8B49CEF0DF09EEF0DF0C2EFE7
:101B3A000DF0010E1026000E11221222132213A0FC
:101B4A00A9EF0DF0ABEF0DF0C2EF0DF010C018F0D9
:101B5A0011C019F012C01AF013C01BF01B341B324B
:101B6A001A321932183218C010F019C011F01AC0FE
:101B7A0012F01BC013F0214A222A22BECDEF0DF02B
:101B8A00225008E12128D8A0CDEF0DF0CFEF0DF0BB
:101B9A00DAEF0DF0000E226E2168000E106E000EB4
:101BAA00116E000E126E000E136E22BEE7EF0DF0DC
:101BBA00225006E12104D8B0E5EF0DF0E7EF0DF071
:101BCA00F5EF0DF0000E226E000E216E000E106E63
:101BDA00000E116E000E126E000E136E000E206EB5
:101BEA0021C027F027A0FCEF0DF0FEEF0DF001EF6A
:101BFA000EF0128E02EF0EF0129ED8902730136E5E
:101C0A00B8EF0CF012000001A5BF0EEF0EF010EFB6
:101C1A000EF011EF0EF05B92A5BF1EEF0EF0A5516C
:101C2A0006E1A405D8B01CEF0EF01EEF0EF024EF6B
:101C3A000EF0000E356E010E346E28EF0EF0A4C0C1
:101C4A0034F0A5C035F0A2C036F0A3C037F05BA8C7
:101C5A0031EF0EF033EF0EF037EF0EF0FE0E3626B0
:101C6A00FF0E37221FC038F020C039F021C03AF0E9
:101C7A0022C03BF023C03CF024C03DF025C03EF01A
:101C8A0026C03FF0000E416E1F0E406E000EC86F58
:101C9A0002EF0FF04006D8A041060F0E3814426E2C
:101CAA00436A43BE62EF0EF0435009E10A0E425CFA
:101CBA00D8A062EF0EF064EF0EF06CEF0EF0570E44
:101CCA004224426E000E4320436E72EF0EF0300E35
:101CDA004224426E000E4320436EBF0E286EFF0E52
:101CEA00296E27502A6E2B6A28502A2629502B2221
:101CFA002B500AE11A0E2A5CD8A086EF0EF089EF63
:101D0A000EF0010E8AEF0EF0000E306E316A30507E
:101D1A003110D8B493EF0EF095EF0EF0C5EF0EF038
:101D2A009F0E286EFF0E296E200E42102A6E000E9C
:101D3A0043102B6E28502A2629502B222B500AE1B9
:101D4A001A0E2A5CD8A0ACEF0EF0AFEF0EF0010E1F
:101D5A00B0EF0EF0000E326E336A32503310D8B440
:101D6A00B9EF0EF0BBEF0EF0C5EF0EF042C008F06F
:101D7A0043C009F008EC14F008C042F009C043F06F
:101D8A00A90E4024D96E000E4120DA6E42C0DFFF50
:101D9A003406D8A035063606D8A0370638C028F04B
:101DAA0039C029F03AC02AF03BC02BF03CC02CF0D5
:101DBA003DC02DF03EC02EF03FC02FF0050EEFEFD4
:101DCA000EF0D8902F322E322D322C322B322A326C
:101DDA0029322832E82EE6EF0EF028C038F029C062
:101DEA0039F02AC03AF02BC03BF02CC03CF02DC091
:101DFA003DF02EC03EF02FC03FF041BE0EEF0FF077
:101E0A00415009E1020E405CD8A00EEF0FF010EF2E
:101E1A000FF040EF0FF0385039103A103B103C10D9
:101E2A003D103E103F10D8A41DEF0FF01FEF0FF02A
:101E3A004FEF0EF035BE2CEF0FF0355006E13404AB
:101E4A00D8B02AEF0FF02CEF0FF04FEF0EF037BE9D
:101E5A0037EF0FF0375008E13604D8A037EF0FF00C
:101E6A0039EF0FF040EF0FF05BB23EEF0FF040EFAB
:101E7A000FF04FEF0EF05BA845EF0FF047EF0FF0B2
:101E8A005DEF0FF04006D8A04106A90E4024D96E96
:101E9A00000E4120DA6E27C0DFFF4006D8A04106B7
:101EAA00A90E4024D96E000E4120DA6E300EDF6E84
:101EBA001DC012F01EC013F0A90E4024146E000EAD
:101ECA004120156E36C016F037C017F08CEC12F0B0
:101EDA0012C01DF013C01EF012000A6E0A50D8B4C8
:101EEA0079EF0FF07BEF0FF09DEF0FF005BE82EF59
:101EFA000FF080EF0FF09DEF0FF002C006F003C065
:101F0A0007F004C008F005C009F0061E071E081EE7
:101F1A00091E062A000E07220822092206C00CF012
:101F2A0007C00DF008C00EF009C00FF0A5EF0FF0C2
:101F3A0002C00CF003C00DF004C00EF005C00FF093
:101F4A000250031004100510D8A4AEEF0FF0B0EF42
:101F5A000FF0BAEF0FF0000E026E000E036E000EC5
:101F6A00046E000E056E4BEF10F0960E0B6EC4EF6A
:101F7A000FF00B2AD8900F320E320D320C32000EAF
:101F8A000C14066E000E0D14076E000E0E14086E69
:101F9A00FE0E0F14096E0650071008100910D8A477
:101FAA00D9EF0FF0DBEF0FF0BEEF0FF0E9EF0FF014
:101FBA000B2A010E0C26000E0D220E220F22D8909B
:101FCA000F320E320D320C32000E0C14066E000E59
:101FDA000D14076E000E0E14086EFF0E0F14096E14
:101FEA000650071008100910D8A4FEEF0FF000EFF2
:101FFA0010F0DDEF0FF008EF10F00B06D8900C365A
:10200A000D360E360F360EBE0DEF10F00FEF10F034
:10201A0017EF10F0020E0B6015EF10F017EF10F02B
:10202A0002EF10F00BB01CEF10F01EEF10F01FEFD4
:10203A0010F00E9ED8900B320BC006F0076A086AA1
:10204A00096A06C009F0086A076A066A06500C128D
:10205A0007500D1208500E1209500F120A50D8B428
:10206A0039EF10F03BEF10F043EF10F005BE42EFEE
:10207A0010F040EF10F043EF10F00F8E0CC002F09A
:10208A000DC003F00EC004F00FC005F01200000EE0
:10209A00176E000E166E000E106E000E0F6E58EFC1
:1020AA0010F0094A0A2A010E156E09C0F6FF0AC085
:1020BA00F7FF000EF86E0800F550200AD8B468EF52
:1020CA0010F06AEF10F089EF10F0F70E0B6EFF0EAA
:1020DA000C6E09C0F6FF0AC0F7FF000EF86E080082
:1020EA00F5500D6E0E6A0B500D260C500E220E5036
:1020FA0009E1050E0D5CD8A085EF10F087EF10F00E
:10210A0089EF10F0000E156E15C011F0126A115009
:10211A001210D8A493EF10F095EF10F056EF10F0CC
:10212A009FEF10F0000E106E010E0F6E094A0A2A78
:10213A00D8EF10F009C0F6FF0AC0F7FF000EF86EDC
:10214A000800F5500B6E0C6A0C50000AD8B4B0EFB8
:10215A0010F0D8EF10F00B502B0AD8B49BEF10F008
:10216A00060AD8B497EF10F0D8EF10F016C002F0B4
:10217A0017C003F0000E056E0A0E046EDBEC15F0B4
:10218A0009C0F6FF0AC0F7FF000EF86E0800F55006
:10219A00025E000E035A300E0224166E000E032051
:1021AA00176E9BEF10F0D00E0B6EFF0E0C6E09C06F
:1021BA00F6FF0AC0F7FF000EF86E0800F5500D6E24
:1021CA000E6A0B500D260C500E220E500AE10A0E12
:1021DA000D5CD8A0F3EF10F0F6EF10F0010EF7EF58
:1021EA0010F0000E136E146A13501410D8A400EFE6
:1021FA0011F002EF11F0BBEF10F00F501010D8A43D
:10220A0009EF11F00BEF11F019EF11F016C00BF0F6
:10221A0017C00CF00B1E0C1E0B4A0C2A0BC009F03F
:10222A000CC00AF01DEF11F016C009F017C00AF031
:10223A001200000E0B6E09BE27EF11F025EF11F008
:10224A0031EF11F0091E081E071E066C000E072248
:10225A0008220922010E0B6E05BE38EF11F036EF87
:10226A0011F042EF11F0051E041E031E026C000E4F
:10227A00032204220522010E0B1A000E0C6E000E18
:10228A000D6E000E0E6E000E0F6E0650071008102F
:10229A000910D8B453EF11F055EF11F08BEF11F08C
:1022AA00010E0A6E5FEF11F0D8900636073608362F
:1022BA0009360A2A09AE64EF11F066EF11F059EFF8
:1022CA0011F0D8900C360D360E360F360650025CD9
:1022DA00075003580850045809500558D8A078EFF9
:1022EA0011F07AEF11F083EF11F00650025E0750F9
:1022FA00035A0850045A0950055A0C80D8900932DA
:10230A000832073206320A2E66EF11F00B50D8B4A3
:10231A0091EF11F093EF11F09BEF11F00F1E0E1ECB
:10232A000D1E0C6C000E0D220E220F220CC002F0A4
:10233A000DC003F00EC004F00FC005F01200043403
:10234A0005340B6E0B50D8A4ADEF11F0AFEF11F0BE
:10235A00B9EF11F0000E026E000E036E000E046E4D
:10236A00000E056E26EF12F002C006F003C007F059
:10237A0004C008F005C009F0200EC9EF11F0D8908A
:10238A000932083207320632E82EC4EF11F006503D
:10239A000A6E048EFF0E0216FF0E0316FF0E0416B7
:1023AA00000E0516960E0B5E0BBEE0EF11F0DEEF87
:1023BA0011F0F6EF11F00B50800A970FD8B0E8EF42
:1023CA0011F0EAEF11F0ECEF11F0AFEF11F0D89045
:1023DA0005320432033202320B3EECEF11F00EEFFB
:1023EA0012F01F0E0B64FCEF11F0FEEF11F006EF76
:1023FA0012F0AFEF11F0D8900236033604360536E4
:10240A000B060B50D8A40CEF12F00EEF12F000EFEF
:10241A0012F00A50D8B414EF12F016EF12F01EEFB1
:10242A0012F0051E041E031E026C000E0322042273
:10243A00052202C002F003C003F004C004F005C084
:10244A0005F0120004500510D8B42EEF12F030EF48
:10245A0012F039EF12F004500510D8A437EF12F039
:10246A0039EF12F03EEF12F0025018EC16F08BEF33
:10247A0012F020EE04F00450D9260550DA22DE507C
:10248A00DE10D8B44BEF12F04DEF12F068EF12F0F5
:10249A0020EE04F00450D9260550DA2210EE02F09C
:1024AA000450E1260550E222DE50E65CE650800A3E
:1024BA000A6EDE50800A0A58D8B066EF12F068EF4A
:1024CA0012F08BEF12F020EE02F00450D9260550DC
:1024DA00DA22DECF06F0DDCF07F004C0D9FF05C04F
:1024EA00DAFFDECF08F0DDCF09F006500824D96EF6
:1024FA0007500920DA6E02C0DFFF20EE02F0045016
:10250A00D9260550DA22DE2A000EDD2212005BA04F
:10251A0091EF12F093EF12F09DEF12F014C00BF04E
:10252A0015C00CF012C00DF013C00EF02CEC15F013
:10253A0017BEA2EF12F0A4EF12F0AAEF12F016C023
:10254A001BF017C01CF0AEEF12F0000E1C6E000E4E
:10255A001B6E000E1A6E000E196EC0EF12F0000EFE
:10256A00036E200E026E12C004F013C005F027ECB1
:10257A0012F0194A1A2A1B50195C1A50800A186E4E
:10258A001C50800A1858D8A0CDEF12F0CFEF12F0E5
:10259A00B4EF12F05BB0D4EF12F0D6EF12F0E0EF26
:1025AA0012F014C00BF015C00CF012C00DF013C0DD
:1025BA000EF02CEC15F014C002F015C003F0C0ECBC
:1025CA0015F01B500224126E1C500320136E1200C9
:1025DA00700ED312030ED312010E116EF40E106E8A
:1025EA0037EC14F010C0E5F011C0E6F0000E966E5C
:1025FA00000E8D6E800ECD6EE5C0CEFFE6C0CFFF19
:10260A00800E396E250E3A6E000E3B6E000E3C6E41
:10261A003FEC13F09D80D08E9F80F28E9E908D822B
:10262A00CD807F0E056EC00E046EE5C006F0E6C0D2
:10263A0007F08FEC13F0000E0001D16F010ED26F7C
:10264A00010ED36F100ED46F7F0E036EC00E026E92
:10265A0006EC15F002C0D5F003C0D6F066EC14F013
:10266A00000E036E010E046EDFEC14F03BEF13F064
:10267A0023EF00F0949C948E39C002F03AC003F024
:10268A003BC004F03CC005F0010E72EC0FF002C032
:10269A0014F003C015F004C016F005C017F0000EC0
:1026AA00106E240E116EF40E126E470E136E3BEC72
:1026BA000CF010C029F011C02AF012C02BF013C080
:1026CA002CF0000E2D6E000E2E6E800E2F6EBF0E99
:1026DA00306E05EC08F029C03DF02AC03EF02BC050
:1026EA003FF02CC040F03DC002F03EC003F03FC0B6
:1026FA0004F040C005F0A4EC11F00250AF6EAC9E9D
:10270A00AC9CAC8AAC98AC947E96900EAB6E9F8AC9
:10271A009D8A120020EE08F03F0EDE6AE806FDE20E
:10272A0004C048F005C049F0000E4A6E48C0F6FFE2
:10273A0049C0F7FFF86A0800080E4A24D96EDA6A17
:10274A00000EDA22F5CFDFFF484A492A4A2A4A50C0
:10275A00800A400FD8A0B4EF13F0B6EF13F09BEF46
:10276A0013F004C002F005C003F0EEEC15F004C04B
:10277A0048F005C049F048C0F6FF49C0F7FFF86ABB
:10278A0006C0F5FF0C00484A492A48C0F6FF49C06E
:10279A00F7FFF86A0750F56E0C00FFEC15F012000F
:1027AA00CBC0CFF0CCC0D0F0000E0001A16F000E5C
:1027BA00A06FF3EF13F0C9C044F0CAC045F0CF0EC2
:1027CA00466E000E476ECDC048F0CEC049F065ECAB
:1027DA000AF044500001A0274550A123CFC0F6FFBC
:1027EA00D0C0F7FF000EF86E0800F5500009D8A413
:1027FA0001EF14F003EF14F0E0EF13F0A0C0C9F0FA
:10280A00A1C0CAF012009F0E0A6EFF0E0B6E08C01E
:10281A000CF009C00DF00A500C260B500D220D5079
:10282A000AE11A0E0C5CD8A01DEF14F020EF14F088
:10283A00010E21EF14F0000E0E6E0F6A0E500F10EB
:10284A00D8B42AEF14F02CEF14F032EF14F05F0E24
:10285A000814086E096A36EF14F008C008F009C0B7
:10286A0009F01200D8901034146E1134156E000E4F
:10287A00026E120E036E7A0E046E000E056E14C0FE
:10288A0012F015C013F0D89012361336D8901236BB
:10289A00133612C006F013C007F0000E07BEFF0E73
:1028AA00086E096E1EEC11F002C016F003C017F094
:1028BA00161C186E171C196E18C010F019C011F0EA
:1028CA001200D50E0001D96F000EDA6FD1C0DBF00D
:1028DA00D2C0DCF0000EDE6F000EDD6F000EE06F7E
:1028EA00000EDF6FDB0EC96F000ECA6FD3C0CBF0CC
:1028FA00D4C0CCF0D90ECD6F000ECE6FD5EC13F04C
:10290A000001DD51D125D96EDE51D221DA6E000ED9
:10291A00DF6E1200010E086E200E02180310D8B4E2
:10292A0099EF14F09BEF14F0B4EF14F0F70E046E65
:10293A00FF0E056E02C006F003C007F0045006261B
:10294A0005500722075009E1050E065CD8A0B0EF32
:10295A0014F0B2EF14F0B4EF14F0000E086E08C0D1
:10296A0002F0036A12002C0EF66E2C0EF76E000EA1
:10297A00F86E00EEE1F010EE04F00900F5CFEEFF7C
:10298A00E550E150FAE101EE00F011EE00F0EE6AD6
:10299A00E550E150FCE1E250FAE100EE60F0690E28
:1029AA00EE6AE806FDE15C6A5B6A5D905D92000191
:1029BA00EDEF12F0000E076E000E066EF7EF14F040
:1029CA0006500324D96E07500420DA6EDF500BEC50
:1029DA0016F00D0E056EFC0EE82EFED7052EFCD75E
:1029EA00064A072A06500324D96E07500420DA6ED5
:1029FA00DF50D8A403EF15F005EF15F0E5EF14F05A
:102A0A001200000E096E000E086E010E0224046EFA
:102A1A00000E0320056E04C0F6FF05C0F7FFF86A32
:102A2A000800F5CF06F0076A02C0F6FF03C0F7FFF9
:102A3A00F86A0800F5CF08F0096A0650056E046ABC
:102A4A0008500410026E09500510036E1200000EA1
:102A5A00116E000E106E3DEF15F00FC002F0036A02
:102A6A000DC004F00EC005F027EC12F0104A112A2E
:102A7A0010500B24D96E11500C20DA6EDF500F6EF5
:102A8A000F50D8A44BEF15F04DEF15F032EF15F0BB
:102A9A0012009F0E046EFF0E056E200E0210066EC7
:102AAA00000E0310076E0450062605500722075031
:102ABA000AE11A0E065CD8A065EF15F068EF15F06A
:102ACA00010E69EF15F0000E026E036A12009F0EE6
:102ADA00046EFF0E056E02C006F003C007F0045034
:102AEA0006260550072207500AE11A0E065CD8A0EE
:102AFA0081EF15F084EF15F0010E85EF15F0000E49
:102B0A00026E036A1200BF0E046EFF0E056E02C04B
:102B1A0006F003C007F004500626055007220750A6
:102B2A000AE11A0E065CD8A09DEF15F0A0EF15F089
:102B3A00010EA1EF15F0000E026E036A1200D00E0C
:102B4A00046EFF0E056E02C006F003C007F00450C3
:102B5A0006260550072207500AE10A0E065CD8A08D
:102B6A00B9EF15F0BCEF15F0010EBDEF15F0000E30
:102B7A00026E036A120002C004F003C005F0C8EF37
:102B8A0015F0024A032A02C0D9FF03C0DAFFDF5058
:102B9A00D8A4D2EF15F0D4EF15F0C6EF15F0045013
:102BAA00025C026E05500358036E120002500402C2
:102BBA00F3CF06F0F4CF07F002500502F3500726D0
:102BCA0003500402F350072606C002F007C003F0C0
:102BDA00120002C0F6FF03C0F7FFF86AA68AA684AD
:102BEA00A688F29E550EA76EAA0EA76EA682A69476
:102BFA00F28E1200A684A698A68AF29E550EA76E99
:102C0A00AA0EA76EA682A694F28E1200026E02C0C7
:102C1A00ADFFACA213EF16F015EF16F00EEF16F09B
:082C2A001200F4011900120070
:020000040001F9
:06FFF80080F418FFF2F195
:00000001FF
