:040000001AEF00F003
:100008004482AECF43F0435023EC05F0020E036E5A
:10001800040E026EBA0EE82EFED7022EFCD7032E6F
:10002800FAD700D0F9EC05F044921100B2EF07F0CE
:100038002E50800B376E2E502E24396E2DAE27EFA2
:1000480000F029EF00F02AEF00F039803950D8B4D9
:1000580030EF00F032EF00F047EF00F03928D8A475
:1000680038EF00F03AEF00F042EF00F0000E2B6E90
:10007800000E2C6E000E2D6E000E2E6E2D8E000EB4
:100088002E6E4FEF00F0000E2B6E000E2C6E000E41
:100098002D6E000E2E6E3250800B386E3750381889
:1000A800D8B459EF00F05BEF00F05CEF00F0378C4C
:1000B80032503224386E31AE64EF00F066EF00F053
:1000C80067EF00F038803850D8B46DEF00F06FEF6C
:1000D80000F084EF00F03828D8A475EF00F077EF2F
:1000E80000F07FEF00F0000E2F6E000E306E000E55
:1000F800316E000E326E318E000E326E8CEF00F0D3
:10010800000E2F6E000E306E000E316E000E326E35
:100118003950385CD8B093EF00F095EF00F0BCEFA1
:1001280000F037AC9AEF00F09CEF00F09EEF00F083
:10013800800E371A39C03AF038C039F03AC038F072
:100148002BC03AF02FC02BF03AC02FF02CC03AF059
:1001580030C02CF03AC030F02DC03AF031C02DF04C
:100168003AC031F02EC03AF032C02EF03AC032F028
:10017800000E3A6E395038C033F0346A335E000EE0
:10018800345A34BED1EF00F0345009E11A0E335C12
:10019800D8A0D1EF00F0D3EF00F00AEF01F02B5018
:1001A8002C102D102E10D8A4DCEF00F0DFEF00F09B
:1001B800010EE0EF00F0000E3A6E000E2B6E000EFE
:1001C8002C6E000E2D6E000E2E6E38C039F013EF17
:1001D80001F03AA0F2EF00F0F4EF00F0FAEF00F0CF
:1001E800D8903A3001093A6EFCEF00F0D8903A32D4
:1001F8002BA001EF01F003EF01F004EF01F03A8EBC
:100208002E342E322D322C322B32392A3850395C8A
:10021800D8A011EF01F013EF01F0EDEF00F037BCBB
:1002280018EF01F01AEF01F05AEF01F03950D8A495
:1002380020EF01F022EF01F02CEF01F0000E2B6E01
:10024800000E2C6E000E2D6E000E2E6E7BEF02F04F
:100258002F502B2630502C2231502D2232502E2256
:100268002EA039EF01F03BEF01F0E7EF01F03AA0E3
:1002780040EF01F042EF01F048EF01F0D8903A303A
:1002880001093A6E4AEF01F0D8903A322BA04FEFAD
:1002980001F051EF01F052EF01F03A8E2E342E3278
:1002A8002D322C322B32392AE7EF01F02F502B5CFC
:1002B80030502C5831502D582E50800A336E325001
:1002C800800A3358D8B06BEF01F06DEF01F098EF6A
:1002D80001F02B502F5C336E2C503058346E2D505B
:1002E8003158356E2E503258366EFF0E33242B6E31
:1002F800FF0E34202C6EFF0E35202D6EFF0E36209B
:100308002E6E800E371A3A6C3A50D8A48EEF01F050
:1003180090EF01F0A0EF01F0010E2B26000E2C2229
:100328002D222E22A0EF01F02F502B5E30502C5A98
:1003380031502D5A32502E5A2B502C102D102E1071
:10034800D8A4A9EF01F0ABEF01F0E0EF01F03A50CB
:10035800D8A4B1EF01F0B3EF01F0E0EF01F0000E27
:100368002B6E000E2C6E000E2D6E000E2E6E7BEF87
:1003780002F0D8902B362C362D362E363AAEC7EFF3
:1003880001F0C9EF01F0CAEF01F02B803AA0CFEFDE
:1003980001F0D1EF01F0D5EF01F0D8803A36D7EF70
:1003A80001F0D8903A363950D8B4DDEF01F0DFEFDC
:1003B80001F0E0EF01F039062DAEE5EF01F0E7EFCF
:1003C80001F0BDEF01F0000E386E3AAEEEEF01F02D
:1003D800F0EF01F008EF02F03AC033F07F0E331669
:1003E800D8B4F9EF01F0FBEF01F0FFEF01F0010ED7
:1003F800386E08EF02F02BA004EF02F006EF02F0CF
:1004080008EF02F0FBEF01F03850D8B40EEF02F01D
:1004180010EF02F03BEF02F0010E2B26000E2C220B
:100428002D222E222EA01BEF02F01DEF02F03BEF33
:1004380002F02BC033F02CC034F02DC035F02EC0A4
:1004480036F03634363235323432333233C02BF06C
:1004580034C02CF035C02DF036C02EF03928D8B471
:1004680038EF02F03AEF02F03BEF02F0392A392870
:10047800D8B441EF02F043EF02F04BEF02F03950ED
:10048800D8A449EF02F04BEF02F05DEF02F0000E46
:100498002B6E000E2C6E000E2D6E000E2E6E395037
:1004A800D8A459EF02F05BEF02F05DEF02F0000E06
:1004B800376E39A062EF02F064EF02F067EF02F0E6
:1004C8002D8E68EF02F02D9ED89039302E6E37AE03
:1004D80070EF02F072EF02F073EF02F02E8E2BC075
:1004E8002BF02CC02CF02DC02DF02EC02EF01200B9
:1004F8001550800B226E15501524296E14AE87EF07
:1005080002F089EF02F08AEF02F029802950D8B46E
:1005180090EF02F092EF02F0A7EF02F02928D8A49A
:1005280098EF02F09AEF02F0A2EF02F0000E126EBE
:10053800000E136E000E146E000E156E148E000E53
:10054800156EAFEF02F0000E126E000E136E000E65
:10055800146E000E156E1950800B221A19501924AA
:100568002A6E18AEBAEF02F0BCEF02F0BDEF02F04F
:100578002A802A50D8B4C3EF02F0C5EF02F0DAEFB0
:1005880002F02A28D8A4CBEF02F0CDEF02F0D5EF85
:1005980002F0000E166E000E176E000E186E000E9A
:1005A800196E188E000E196EE2EF02F0000E166E2C
:1005B800000E176E000E186E000E196E16501710EA
:1005C80018101910D8A4EBEF02F0EDEF02F005EFC8
:1005D80003F0000E126E000E136E000E146E000E65
:1005E800156E800E14127F0E15122250151212C0AD
:1005F80012F013C013F014C014F015C015F048EF32
:1006080004F02950D8A40BEF03F00DEF03F017EF17
:1006180003F0000E126E000E136E000E146E000E24
:10062800156E48EF04F02A5029C01AF01B6A1A5EAA
:10063800000E1B5A7F0E1A24236E000E1B20246EF8
:1006480012C01EF013C01FF014C020F015C021F016
:10065800000E126E000E136E000E146E000E156E54
:10066800000E256E000E266E000E276E000E286EF8
:10067800000E2A6E78EF03F02A50D8B446EF03F044
:1006880048EF03F05FEF03F0D8901E361F36203690
:100698002136D890123613361436153628AE57EF51
:1006A80003F059EF03F05AEF03F01280D890253683
:1006B80026362736283616501E5C17501F581850F5
:1006C800205819502158D8A06CEF03F06EEF03F0B2
:1006D80077EF03F0288C16501E5E17501F5A1850DB
:1006E800205A1950215A2A2A190E2A647EEF03F03B
:1006F80080EF03F040EF03F01E501F102010211070
:10070800D8B489EF03F08BEF03F0A3EF03F0258053
:10071800A3EF03F0D890123613361436153628AEE8
:1007280098EF03F09AEF03F09BEF03F01280D89054
:1007380025362636273628362306D8A0240614AEB2
:10074800A8EF03F0AAEF03F08EEF03F0000E2A6E75
:1007580028AEB1EF03F0B3EF03F0D7EF03F0FF0ECD
:1007680025141A6EFF0E26141B6EFF0E27141C6E1E
:100778007F0E28141D6E1A501B101C101D10D8B4A3
:10078800C8EF03F0CAEF03F0CEEF03F0010E2A6EB4
:10079800D7EF03F012A0D3EF03F0D5EF03F0D7EFB4
:1007A80003F0CAEF03F02A50D8B4DDEF03F0DFEF0F
:1007B80003F003EF04F0010E1226000E1322142298
:1007C800152215A0EAEF03F0ECEF03F003EF04F0B5
:1007D80012C01AF013C01BF014C01CF015C01DF095
:1007E8001D341D321C321B321A321AC012F01BC0C3
:1007F80013F01CC014F01DC015F0234A242A24BE8F
:100808000EEF04F0245008E12328D8A00EEF04F0DE
:1008180010EF04F01BEF04F0000E246E2368000EA6
:10082800126E000E136E000E146E000E156E24BEAE
:1008380028EF04F0245006E12304D8B026EF04F092
:1008480028EF04F036EF04F0000E246E000E236E3D
:10085800000E126E000E136E000E146E000E156E52
:10086800000E226E23C029F029A03DEF04F03FEFCF
:1008780004F042EF04F0148E43EF04F0149ED89075
:100888002930156EF9EF02F012000C6E0C50D8B436
:1008980050EF04F052EF04F074EF04F007BE59EF84
:1008A80004F057EF04F074EF04F004C008F005C03A
:1008B80009F006C00AF007C00BF0081E091E0A1E40
:1008C8000B1E082A000E09220A220B2208C00EF06D
:1008D80009C00FF00AC010F00BC011F07CEF04F053
:1008E80004C00EF005C00FF006C010F007C011F0EC
:1008F8000450051006100710D8A485EF04F087EF00
:1009080004F091EF04F0000E046E000E056E000E68
:10091800066E000E076E22EF05F0960E0D6E9BEF29
:1009280004F00D2AD890113210320F320E32000E18
:100938000E14086E000E0F14096E000E10140A6EC5
:10094800FE0E11140B6E085009100A100B10D8A4D3
:10095800B0EF04F0B2EF04F095EF04F0C0EF04F04C
:100968000D2A010E0E26000E0F2210221122D890F9
:10097800113210320F320E32000E0E14086E000EB5
:100988000F14096E000E10140A6EFF0E11140B6E70
:10099800085009100A100B10D8A4D5EF04F0D7EFAF
:1009A80004F0B4EF04F0DFEF04F00D06D8900E3633
:1009B8000F361036113610BEE4EF04F0E6EF04F0FF
:1009C800EEEF04F0020E0D60ECEF04F0EEEF04F031
:1009D800D9EF04F00DB0F3EF04F0F5EF04F0F6EF03
:1009E80004F0109ED8900D320DC008F0096A0A6A0A
:1009F8000B6A08C00BF00A6A096A086A08500E12E6
:100A080009500F120A5010120B5011120C50D8B482
:100A180010EF05F012EF05F01AEF05F007BE19EF19
:100A280005F017EF05F01AEF05F0118E0EC004F06F
:100A38000FC005F010C006F011C007F01200016EDB
:100A4800300E0118D8A42BEF05F02DEF05F031EF8B
:100A580005F0010E8D6EF8EF05F0310E0118D8A4DF
:100A680038EF05F03AEF05F03EEF05F0020E8D6E17
:100A7800F8EF05F0320E0118D8A445EF05F047EF5E
:100A880005F04BEF05F0040E8D6EF8EF05F0330E10
:100A98000118D8A452EF05F054EF05F058EF05F00F
:100AA800080E8D6EF8EF05F0340E0118D8A45FEF2C
:100AB80005F061EF05F065EF05F0100E8D6EF8EFAB
:100AC80005F0350E0118D8A46CEF05F06EEF05F0AF
:100AD80072EF05F0200E8D6EF8EF05F0360E011856
:100AE800D8A479EF05F07BEF05F07FEF05F0400E15
:100AF8008D6EF8EF05F0370E0118D8A486EF05F0D3
:100B080088EF05F08CEF05F0800E8D6EF8EF05F09C
:100B1800710E0118D8A493EF05F095EF05F099EF41
:100B280005F0010E906EF8EF05F0770E0118D8A4C5
:100B3800A0EF05F0A2EF05F0A6EF05F0020E906E0B
:100B4800F8EF05F0650E0118D8A4ADEF05F0AFEF8A
:100B580005F0B3EF05F0040E906EF8EF05F0720E95
:100B68000118D8A4BAEF05F0BCEF05F0C0EF05F006
:100B7800080E906EF8EF05F0740E0118D8A4C7EFB0
:100B880005F0C9EF05F0CDEF05F0100E906EF8EF07
:100B980005F0790E0118D8A4D4EF05F0D6EF05F0CA
:100BA800DAEF05F0200E906EF8EF05F0750E0118DB
:100BB800D8A4E1EF05F0E3EF05F0E7EF05F0400E0C
:100BC800906EF8EF05F0690E0118D8A4EEEF05F065
:100BD800F0EF05F0F4EF05F0800E906EF8EF05F0F9
:100BE800000E8D6E000E906E120080B0FEEF05F0C4
:100BF80000EF06F004EF06F0010E906EADEF06F080
:100C080085B209EF06F00BEF06F00FEF06F0020EC3
:100C1800906EADEF06F085B414EF06F016EF06F00F
:100C28001AEF06F0040E906EADEF06F085B61FEFD2
:100C380006F021EF06F025EF06F0080E906EADEFF6
:100C480006F085B82AEF06F02CEF06F030EF06F034
:100C5800100E906EADEF06F085BA35EF06F037EF5F
:100C680006F03BEF06F0200E906EADEF06F085BC67
:100C780040EF06F042EF06F046EF06F0400E906EA9
:100C8800ADEF06F085BE4BEF06F04DEF06F051EFE5
:100C980006F0800E906EADEF06F083B056EF06F0CA
:100CA80058EF06F05CEF06F0010E8D6EADEF06F022
:100CB80083B261EF06F063EF06F067EF06F0020E0D
:100CC8008D6EADEF06F083B46CEF06F06EEF06F0B4
:100CD80072EF06F0040E8D6EADEF06F083B677EF77
:100CE80006F079EF06F07DEF06F0080E8D6EADEF99
:100CF80006F083B882EF06F084EF06F088EF06F07E
:100D0800100E8D6EADEF06F083BA8DEF06F08FEF03
:100D180006F093EF06F0200E8D6EADEF06F083BC63
:100D280098EF06F09AEF06F09EEF06F0400E8D6EF3
:100D3800ADEF06F083BEA3EF06F0A5EF06F0A9EF2E
:100D480006F0800E8D6EADEF06F0000E906E000E70
:100D58008D6E1200063407340D6E0D50D8A4B7EF0F
:100D680006F0B9EF06F0C3EF06F0000E046E000EB1
:100D7800056E000E066E000E076E30EF07F004C019
:100D880008F005C009F006C00AF007C00BF0200EF5
:100D9800D3EF06F0D8900B320A3209320832E82E27
:100DA800CEEF06F008500C6E068EFF0E0416FF0EEE
:100DB8000516FF0E0616000E0716960E0D5E0DBEE2
:100DC800EAEF06F0E8EF06F000EF07F00D50800AB2
:100DD800970FD8B0F2EF06F0F4EF06F0F6EF06F052
:100DE800B9EF06F0D89007320632053204320D3ECC
:100DF800F6EF06F018EF07F01F0E0D6406EF07F088
:100E080008EF07F010EF07F0B9EF06F0D8900436B6
:100E18000536063607360D060D50D8A416EF07F02E
:100E280018EF07F00AEF07F00C50D8B41EEF07F0E0
:100E380020EF07F028EF07F0071E061E051E046CBA
:100E4800000E05220622072204C004F005C005F0A2
:100E580006C006F007C007F01200949C948E3BC0B1
:100E680004F03CC005F03DC006F03EC007F0010E9E
:100E780049EC04F004C016F005C017F006C018F0DD
:100E880007C019F0000E126E240E136EF40E146EC5
:100E9800470E156E7CEC02F012C02BF013C02CF03C
:100EA80014C02DF015C02EF0000E2F6E000E306EFF
:100EB800800E316EBF0E326E1CEC00F02BC03FF07E
:100EC8002CC040F02DC041F02EC042F03FC004F0CD
:100ED80040C005F041C006F042C007F0AEEC06F095
:100EE8000450AF6EAC9EAC9CAC8AAC98AC947E9629
:100EF800900EAB6E9F889F8A9D8A9D881200700E07
:100F0800D312030ED312D3A48CEF07F08EEF07F0A1
:100F180087EF07F0000E966E000E996E9568976839
:100F28009280070EB46E0F0EC16E000E8D6E000E0D
:100F3800906E070EB46E0F0EC16EF28CD08EF28ECC
:100F4800800E3B6E250E3C6E000E3D6E000E3E6E12
:100F580031EC07F0AEEF07F01AEF00F0436A449067
:080F68004492000183EF07F041
:020000040001F9
:06FFF80080F418FFF2F195
:00000001FF
